:1000000009C021C020C020C01EC01DC01CC01BC014
:100010001AC019C011241FBECFE9CDBF10E0A0E661
:10002000B0E0ECE1F2E002C005900D92A039B1071A
:10003000D9F720E0A0E9B0E001C01D92A539B207D0
:10004000E1F7C1D0E9C0DCCF1F920F920FB60F923B
:1000500011248F939F939091900080919200981714
:1000600020F488B3886088BB03C088B3877F88BBCF
:100070009091900080919300981720F488B382604B
:1000800088BB03C088B38D7F88BB9091900080911E
:100090009400981720F488B3846088BB03C088B3A9
:1000A0008B7F88BB809190008F5F809390009F91A1
:1000B0008F910F900FBE0F901F90189590E01CC06D
:1000C000891718F09093920002C0809392006917EC
:1000D00018F09093930002C060939300491718F0B2
:1000E0009093940002C040939400EFE9FCE83197AC
:1000F000F1F700C000009F5F9F3F11F7FFEF2CE773
:1001000034EF51E0F150204030405040D9F700C06A
:1001100000001CC0981718F08093920002C09093C2
:100120009200961718F06093930002C0909393008A
:10013000941718F04093940002C090939400EFE954
:10014000FCE83197F1F700C0000091509111E2CF27
:10015000109292001092930010929400089580E003
:100160000DC080939200982F909590939300EFE9A3
:10017000FCE83197F1F700C000008F5F8F3F89F7EF
:1001800080E00DC080939400982F909590939200FA
:10019000EFE9FCE83197F1F700C000008F5F8F3F77
:1001A00089F780E00DC080939300982F90959093ED
:1001B0009400EFE9FCE83197F1F700C000008F5F91
:1001C0008F3F89F708958FEF87BB18BA83B7816097
:1001D00083BF89B7826089BF7894C1DFC0E019C04E
:1001E000C0939100EC2FF0E0CF01880F991FE80F2A
:1001F000F91FE05AFF4F4281618180815FDF2FEF5D
:1002000082E597E0215080409040E1F700C0000077
:0C021000CF5FC03128F3E2CFF894FFCF9D
:10021C0000FF7FFFFF00008B8B0000FF7B68EE80F0
:10022C000080C7158500BFFF00FFFF00FA9A7FFF13
:10023C00D4FF000000FF00FF00FF006400FFFFFF81
:00000001FF
